{
  "address": "0xDc158015B34cCE880b2C0890C71cc69D16573a5f",
  "abi": [
    {
      "inputs": [
        {
          "internalType": "address",
          "name": "usdcToken",
          "type": "address"
        },
        {
          "internalType": "address",
          "name": "compoundUsdcToken",
          "type": "address"
        },
        {
          "internalType": "address",
          "name": "fauceteer",
          "type": "address"
        }
      ],
      "stateMutability": "nonpayable",
      "type": "constructor"
    },
    {
      "anonymous": false,
      "inputs": [
        {
          "indexed": false,
          "internalType": "address",
          "name": "tokenIn",
          "type": "address"
        },
        {
          "indexed": false,
          "internalType": "address",
          "name": "tokenOut",
          "type": "address"
        },
        {
          "indexed": false,
          "internalType": "uint256",
          "name": "amount",
          "type": "uint256"
        },
        {
          "indexed": false,
          "internalType": "address",
          "name": "trader",
          "type": "address"
        }
      ],
      "name": "Swap",
      "type": "event"
    },
    {
      "inputs": [],
      "name": "getSupportedTokens",
      "outputs": [
        {
          "internalType": "address",
          "name": "usdcToken",
          "type": "address"
        },
        {
          "internalType": "address",
          "name": "compoundUsdcToken",
          "type": "address"
        }
      ],
      "stateMutability": "view",
      "type": "function"
    },
    {
      "inputs": [
        {
          "internalType": "address",
          "name": "tokenIn",
          "type": "address"
        },
        {
          "internalType": "address",
          "name": "tokenOut",
          "type": "address"
        },
        {
          "internalType": "uint256",
          "name": "amount",
          "type": "uint256"
        }
      ],
      "name": "swap",
      "outputs": [],
      "stateMutability": "nonpayable",
      "type": "function"
    }
  ],
  "transactionHash": "0xf505208d25fbad57440664eba7b859a0494fe330ba93cc1dbc03bd464e951fcb",
  "args": [
    "0x1c7D4B196Cb0C7B01d743Fbc6116a902379C7238",
    "0x1c7D4B196Cb0C7B01d743Fbc6116a902379C7238",
    "0x68793eA49297eB75DFB4610B68e076D2A5c7646C"
  ],
  "numDeployments": 1,
  "solcInputHash": "f782a52af97e3a6419bb823f74b99fdc",
  "bytecode": "0x60c06040523480156200001157600080fd5b5060405162000e6438038062000e64833981810160405281019062000037919062000189565b60016000819055508273ffffffffffffffffffffffffffffffffffffffff1660808173ffffffffffffffffffffffffffffffffffffffff16815250508173ffffffffffffffffffffffffffffffffffffffff1660a08173ffffffffffffffffffffffffffffffffffffffff16815250508073ffffffffffffffffffffffffffffffffffffffff166367a5cd06836040518263ffffffff1660e01b8152600401620000e29190620001f6565b600060405180830381600087803b158015620000fd57600080fd5b505af115801562000112573d6000803e3d6000fd5b5050505050505062000213565b600080fd5b600073ffffffffffffffffffffffffffffffffffffffff82169050919050565b6000620001518262000124565b9050919050565b620001638162000144565b81146200016f57600080fd5b50565b600081519050620001838162000158565b92915050565b600080600060608486031215620001a557620001a46200011f565b5b6000620001b58682870162000172565b9350506020620001c88682870162000172565b9250506040620001db8682870162000172565b9150509250925092565b620001f08162000144565b82525050565b60006020820190506200020d6000830184620001e5565b92915050565b60805160a051610c126200025260003960008181609c0152818161012201526101d0015260008181607b0152818160cd015261017b0152610c126000f3fe608060405234801561001057600080fd5b50600436106100365760003560e01c8063d3c7c2c71461003b578063df791e501461005a575b600080fd5b610043610076565b6040516100519291906106d4565b60405180910390f35b610074600480360381019061006f9190610764565b6100c3565b005b6000807f00000000000000000000000000000000000000000000000000000000000000007f0000000000000000000000000000000000000000000000000000000000000000915091509091565b6100cb61031d565b7f000000000000000000000000000000000000000000000000000000000000000073ffffffffffffffffffffffffffffffffffffffff168373ffffffffffffffffffffffffffffffffffffffff16148061017057507f000000000000000000000000000000000000000000000000000000000000000073ffffffffffffffffffffffffffffffffffffffff168373ffffffffffffffffffffffffffffffffffffffff16145b61017957600080fd5b7f000000000000000000000000000000000000000000000000000000000000000073ffffffffffffffffffffffffffffffffffffffff168273ffffffffffffffffffffffffffffffffffffffff16148061021e57507f000000000000000000000000000000000000000000000000000000000000000073ffffffffffffffffffffffffffffffffffffffff168273ffffffffffffffffffffffffffffffffffffffff16145b61022757600080fd5b6102543330838673ffffffffffffffffffffffffffffffffffffffff1661036c909392919063ffffffff16565b8173ffffffffffffffffffffffffffffffffffffffff1663a9059cbb33836040518363ffffffff1660e01b815260040161028f9291906107c6565b6020604051808303816000875af11580156102ae573d6000803e3d6000fd5b505050506040513d601f19601f820116820180604052508101906102d29190610827565b507fb3822e221d737fbfd984649052a302a883d38a40f7ae591e3bcb5069eedc2a59838383336040516103089493929190610854565b60405180910390a16103186103f5565b505050565b600260005403610362576040517f08c379a0000000000000000000000000000000000000000000000000000000008152600401610359906108f6565b60405180910390fd5b6002600081905550565b6103ef846323b872dd60e01b85858560405160240161038d93929190610916565b604051602081830303815290604052907bffffffffffffffffffffffffffffffffffffffffffffffffffffffff19166020820180517bffffffffffffffffffffffffffffffffffffffffffffffffffffffff83818316178352505050506103ff565b50505050565b6001600081905550565b6000610461826040518060400160405280602081526020017f5361666545524332303a206c6f772d6c6576656c2063616c6c206661696c65648152508573ffffffffffffffffffffffffffffffffffffffff166104c69092919063ffffffff16565b90506000815111156104c157808060200190518101906104819190610827565b6104c0576040517f08c379a00000000000000000000000000000000000000000000000000000000081526004016104b7906109bf565b60405180910390fd5b5b505050565b60606104d584846000856104de565b90509392505050565b606082471015610523576040517f08c379a000000000000000000000000000000000000000000000000000000000815260040161051a90610a51565b60405180910390fd5b6000808673ffffffffffffffffffffffffffffffffffffffff16858760405161054c9190610ae2565b60006040518083038185875af1925050503d8060008114610589576040519150601f19603f3d011682016040523d82523d6000602084013e61058e565b606091505b509150915061059f878383876105ab565b92505050949350505050565b6060831561060d576000835103610605576105c585610620565b610604576040517f08c379a00000000000000000000000000000000000000000000000000000000081526004016105fb90610b45565b60405180910390fd5b5b829050610618565b6106178383610643565b5b949350505050565b6000808273ffffffffffffffffffffffffffffffffffffffff163b119050919050565b6000825111156106565781518083602001fd5b806040517f08c379a000000000000000000000000000000000000000000000000000000000815260040161068a9190610bba565b60405180910390fd5b600073ffffffffffffffffffffffffffffffffffffffff82169050919050565b60006106be82610693565b9050919050565b6106ce816106b3565b82525050565b60006040820190506106e960008301856106c5565b6106f660208301846106c5565b9392505050565b600080fd5b61070b816106b3565b811461071657600080fd5b50565b60008135905061072881610702565b92915050565b6000819050919050565b6107418161072e565b811461074c57600080fd5b50565b60008135905061075e81610738565b92915050565b60008060006060848603121561077d5761077c6106fd565b5b600061078b86828701610719565b935050602061079c86828701610719565b92505060406107ad8682870161074f565b9150509250925092565b6107c08161072e565b82525050565b60006040820190506107db60008301856106c5565b6107e860208301846107b7565b9392505050565b60008115159050919050565b610804816107ef565b811461080f57600080fd5b50565b600081519050610821816107fb565b92915050565b60006020828403121561083d5761083c6106fd565b5b600061084b84828501610812565b91505092915050565b600060808201905061086960008301876106c5565b61087660208301866106c5565b61088360408301856107b7565b61089060608301846106c5565b95945050505050565b600082825260208201905092915050565b7f5265656e7472616e637947756172643a207265656e7472616e742063616c6c00600082015250565b60006108e0601f83610899565b91506108eb826108aa565b602082019050919050565b6000602082019050818103600083015261090f816108d3565b9050919050565b600060608201905061092b60008301866106c5565b61093860208301856106c5565b61094560408301846107b7565b949350505050565b7f5361666545524332303a204552433230206f7065726174696f6e20646964206e60008201527f6f74207375636365656400000000000000000000000000000000000000000000602082015250565b60006109a9602a83610899565b91506109b48261094d565b604082019050919050565b600060208201905081810360008301526109d88161099c565b9050919050565b7f416464726573733a20696e73756666696369656e742062616c616e636520666f60008201527f722063616c6c0000000000000000000000000000000000000000000000000000602082015250565b6000610a3b602683610899565b9150610a46826109df565b604082019050919050565b60006020820190508181036000830152610a6a81610a2e565b9050919050565b600081519050919050565b600081905092915050565b60005b83811015610aa5578082015181840152602081019050610a8a565b60008484015250505050565b6000610abc82610a71565b610ac68185610a7c565b9350610ad6818560208601610a87565b80840191505092915050565b6000610aee8284610ab1565b915081905092915050565b7f416464726573733a2063616c6c20746f206e6f6e2d636f6e7472616374000000600082015250565b6000610b2f601d83610899565b9150610b3a82610af9565b602082019050919050565b60006020820190508181036000830152610b5e81610b22565b9050919050565b600081519050919050565b6000601f19601f8301169050919050565b6000610b8c82610b65565b610b968185610899565b9350610ba6818560208601610a87565b610baf81610b70565b840191505092915050565b60006020820190508181036000830152610bd48184610b81565b90509291505056fea26469706673582212202aedce815e6ca2dec27a545f690299a1c2e34b2c81f26aa46dcef543bc34577e64736f6c63430008140033",
  "devdoc": {
    "kind": "dev",
    "methods": {},
    "version": 1
  },
  "userdoc": {
    "kind": "user",
    "methods": {},
    "notice": "THIS IS AN EXAMPLE CONTRACT THAT USES HARDCODED VALUES FOR CLARITY. THIS IS AN EXAMPLE CONTRACT THAT USES UN-AUDITED CODE. DO NOT USE THIS CODE IN PRODUCTION.",
    "version": 1
  },
  "storageLayout": {
    "storage": [
      {
        "astId": 735,
        "contract": "contracts/SwapTestnetUSDC.sol:SwapTestnetUSDC",
        "label": "_status",
        "offset": 0,
        "slot": "0",
        "type": "t_uint256"
      }
    ],
    "types": {
      "t_uint256": {
        "encoding": "inplace",
        "label": "uint256",
        "numberOfBytes": "32"
      }
    }
  }
}